{
  "contractName": "ProductContract",
  "abi": [
    {
      "constant": false,
      "inputs": [
        {
          "internalType": "uint256",
          "name": "barcode",
          "type": "uint256"
        },
        {
          "internalType": "string",
          "name": "location",
          "type": "string"
        },
        {
          "internalType": "string",
          "name": "name",
          "type": "string"
        }
      ],
      "name": "add",
      "outputs": [],
      "payable": false,
      "stateMutability": "nonpayable",
      "type": "function"
    }
  ],
  "bytecode": "0x608060405234801561001057600080fd5b506102df806100206000396000f3fe608060405234801561001057600080fd5b506004361061002b5760003560e01c806351a8214b14610030575b600080fd5b61018a6004803603606081101561004657600080fd5b81019080803590602001909291908035906020019064010000000081111561006d57600080fd5b82018360208201111561007f57600080fd5b803590602001918460018302840111640100000000831117156100a157600080fd5b91908080601f016020809104026020016040519081016040528093929190818152602001838380828437600081840152601f19601f8201169050808301925050505050505091929192908035906020019064010000000081111561010457600080fd5b82018360208201111561011657600080fd5b8035906020019184600183028401116401000000008311171561013857600080fd5b91908080601f016020809104026020016040519081016040528093929190818152602001838380828437600081840152601f19601f82011690508083019250505050505050919291929050505061018c565b005b60405180606001604052808281526020018381526020018481525060008085815260200190815260200160002060008201518160000190805190602001906101d5929190610205565b5060208201518160010190805190602001906101f2929190610205565b5060408201518160020155905050505050565b828054600181600116156101000203166002900490600052602060002090601f016020900481019282601f1061024657805160ff1916838001178555610274565b82800160010185558215610274579182015b82811115610273578251825591602001919060010190610258565b5b5090506102819190610285565b5090565b6102a791905b808211156102a357600081600090555060010161028b565b5090565b9056fea265627a7a72315820b8badb8b67e868b746a57c58df3ca3062148e095fae429c9f641d3590397433a64736f6c63430005100032",
  "source": "pragma solidity >=0.4.21 <0.7.0;\n\ncontract ProductContract {\n    struct ProductData {\n        string name;\n        string location;\n        uint barcode;\n    }\n    \n    mapping (uint => ProductData) products;\n    \n    function add(uint barcode, string memory location, string memory name) public {\n        products[barcode] = ProductData(name, location, barcode);\n    }\n    \n    // function getProducts() view public returns(string[] memory) {\n    //     return productDb;\n    // }\n    \n    // function getProduct(string memory _hash) view public returns (string memory, string memory) {\n    //     var product = products[_hash];\n\n    //     return (product.name, product.location);\n    // }\n    \n    // function countProducts() view public returns (uint) {\n    //     return productDb.length;\n    // }\n}\n",
  "sourcePath": "/Users/jasper/Code/blockchainavans/contracts/ProductContract.sol",
  "compiler": {
    "name": "solc",
    "version": "0.5.16+commit.9c3226ce.Emscripten.clang"
  },
  "schemaVersion": "3.4.3",
  "updatedAt": "2021-10-19T13:59:09.895Z",
  "devdoc": {
    "methods": {}
  },
  "userdoc": {
    "methods": {}
  }
}