{
  "contractName": "ProductContract",
  "abi": [
    {
      "constant": true,
      "inputs": [
        {
          "internalType": "address",
          "name": "",
          "type": "address"
        }
      ],
      "name": "penalties",
      "outputs": [
        {
          "internalType": "uint256",
          "name": "",
          "type": "uint256"
        }
      ],
      "payable": false,
      "stateMutability": "view",
      "type": "function"
    },
    {
      "constant": true,
      "inputs": [
        {
          "internalType": "uint256",
          "name": "",
          "type": "uint256"
        }
      ],
      "name": "productList",
      "outputs": [
        {
          "internalType": "uint256",
          "name": "",
          "type": "uint256"
        }
      ],
      "payable": false,
      "stateMutability": "view",
      "type": "function"
    },
    {
      "constant": true,
      "inputs": [
        {
          "internalType": "uint256",
          "name": "",
          "type": "uint256"
        }
      ],
      "name": "productStructs",
      "outputs": [
        {
          "internalType": "string",
          "name": "name",
          "type": "string"
        },
        {
          "internalType": "string",
          "name": "location",
          "type": "string"
        },
        {
          "internalType": "uint256",
          "name": "barcode",
          "type": "uint256"
        },
        {
          "internalType": "bool",
          "name": "exists",
          "type": "bool"
        }
      ],
      "payable": false,
      "stateMutability": "view",
      "type": "function"
    },
    {
      "constant": true,
      "inputs": [
        {
          "internalType": "address",
          "name": "",
          "type": "address"
        }
      ],
      "name": "users",
      "outputs": [
        {
          "internalType": "string",
          "name": "",
          "type": "string"
        }
      ],
      "payable": false,
      "stateMutability": "view",
      "type": "function"
    },
    {
      "constant": false,
      "inputs": [
        {
          "internalType": "string",
          "name": "location",
          "type": "string"
        }
      ],
      "name": "addUser",
      "outputs": [],
      "payable": false,
      "stateMutability": "nonpayable",
      "type": "function"
    },
    {
      "constant": false,
      "inputs": [
        {
          "internalType": "uint256",
          "name": "barcode",
          "type": "uint256"
        }
      ],
      "name": "getProduct",
      "outputs": [
        {
          "components": [
            {
              "internalType": "string",
              "name": "name",
              "type": "string"
            },
            {
              "internalType": "string",
              "name": "location",
              "type": "string"
            },
            {
              "internalType": "uint256",
              "name": "barcode",
              "type": "uint256"
            },
            {
              "internalType": "bool",
              "name": "exists",
              "type": "bool"
            }
          ],
          "internalType": "struct ProductContract.ProductData",
          "name": "",
          "type": "tuple"
        }
      ],
      "payable": false,
      "stateMutability": "nonpayable",
      "type": "function"
    },
    {
      "constant": false,
      "inputs": [
        {
          "internalType": "uint256",
          "name": "barcode",
          "type": "uint256"
        },
        {
          "internalType": "string",
          "name": "location",
          "type": "string"
        },
        {
          "internalType": "string",
          "name": "name",
          "type": "string"
        }
      ],
      "name": "add",
      "outputs": [
        {
          "internalType": "uint256",
          "name": "",
          "type": "uint256"
        }
      ],
      "payable": false,
      "stateMutability": "nonpayable",
      "type": "function"
    },
    {
      "constant": true,
      "inputs": [],
      "name": "all",
      "outputs": [
        {
          "internalType": "uint256[]",
          "name": "",
          "type": "uint256[]"
        }
      ],
      "payable": false,
      "stateMutability": "view",
      "type": "function"
    },
    {
      "constant": true,
      "inputs": [],
      "name": "count",
      "outputs": [
        {
          "internalType": "uint256",
          "name": "",
          "type": "uint256"
        }
      ],
      "payable": false,
      "stateMutability": "view",
      "type": "function"
    },
    {
      "constant": true,
      "inputs": [],
      "name": "penalty",
      "outputs": [
        {
          "internalType": "uint256",
          "name": "",
          "type": "uint256"
        }
      ],
      "payable": false,
      "stateMutability": "view",
      "type": "function"
    },
    {
      "constant": false,
      "inputs": [],
      "name": "payPenalty",
      "outputs": [],
      "payable": true,
      "stateMutability": "payable",
      "type": "function"
    },
    {
      "constant": true,
      "inputs": [],
      "name": "checkUser",
      "outputs": [
        {
          "internalType": "string",
          "name": "",
          "type": "string"
        }
      ],
      "payable": false,
      "stateMutability": "view",
      "type": "function"
    }
  ],
  "bytecode": "0x608060405234801561001057600080fd5b506114c3806100206000396000f3fe6080604052600436106100a75760003560e01c806351a8214b1161006457806351a8214b146101d3578063528c87d214610210578063a87430ba1461024d578063b404d65d1461028a578063b9db15b414610294578063c1562547146102d1576100a7565b806306661abd146100ac5780630edd2ffc146100d757806310c4e8b01461010257806318b8275a1461012d5780632fb1ad101461015657806331e8d9a614610196575b600080fd5b3480156100b857600080fd5b506100c16102fc565b6040516100ce91906112b2565b60405180910390f35b3480156100e357600080fd5b506100ec610309565b6040516100f991906112b2565b60405180910390f35b34801561010e57600080fd5b50610117610350565b6040516101249190611197565b60405180910390f35b34801561013957600080fd5b50610154600480360361014f9190810190610dc2565b6103a8565b005b34801561016257600080fd5b5061017d60048036036101789190810190610e03565b6103fe565b60405161018d94939291906111fd565b60405180910390f35b3480156101a257600080fd5b506101bd60048036036101b89190810190610d99565b61056b565b6040516101ca91906112b2565b60405180910390f35b3480156101df57600080fd5b506101fa60048036036101f59190810190610e2c565b610583565b60405161020791906112b2565b60405180910390f35b34801561021c57600080fd5b5061023760048036036102329190810190610e03565b6106bd565b60405161024491906112b2565b60405180910390f35b34801561025957600080fd5b50610274600480360361026f9190810190610d99565b6106de565b60405161028191906111b9565b60405180910390f35b61029261078e565b005b3480156102a057600080fd5b506102bb60048036036102b69190810190610e03565b610826565b6040516102c89190611290565b60405180910390f35b3480156102dd57600080fd5b506102e6610aee565b6040516102f391906111db565b60405180910390f35b6000600380549050905090565b6000600160003373ffffffffffffffffffffffffffffffffffffffff1673ffffffffffffffffffffffffffffffffffffffff16815260200190815260200160002054905090565b6060600380548060200260200160405190810160405280929190818152602001828054801561039e57602002820191906000526020600020905b81548152602001906001019080831161038a575b5050505050905090565b806000803373ffffffffffffffffffffffffffffffffffffffff1673ffffffffffffffffffffffffffffffffffffffff16815260200190815260200160002090805190602001906103fa929190610bcc565b5050565b6002602052806000526040600020600091509050806000018054600181600116156101000203166002900480601f0160208091040260200160405190810160405280929190818152602001828054600181600116156101000203166002900480156104aa5780601f1061047f576101008083540402835291602001916104aa565b820191906000526020600020905b81548152906001019060200180831161048d57829003601f168201915b505050505090806001018054600181600116156101000203166002900480601f0160208091040260200160405190810160405280929190818152602001828054600181600116156101000203166002900480156105485780601f1061051d57610100808354040283529160200191610548565b820191906000526020600020905b81548152906001019060200180831161052b57829003601f168201915b5050505050908060020154908060030160009054906101000a900460ff16905084565b60016020528060005260406000206000915090505481565b60006002600085815260200190815260200160002060030160009054906101000a900460ff16156105e9576040517f08c379a00000000000000000000000000000000000000000000000000000000081526004016105e090611250565b60405180910390fd5b60405180608001604052808381526020018481526020018581526020016001151581525060026000868152602001908152602001600020600082015181600001908051906020019061063c929190610c4c565b506020820151816001019080519060200190610659929190610c4c565b506040820151816002015560608201518160030160006101000a81548160ff02191690831515021790555090505060038490806001815401808255809150509060018203906000526020600020016000909192909190915055508390509392505050565b600381815481106106ca57fe5b906000526020600020016000915090505481565b60006020528060005260406000206000915090508054600181600116156101000203166002900480601f0160208091040260200160405190810160405280929190818152602001828054600181600116156101000203166002900480156107865780601f1061075b57610100808354040283529160200191610786565b820191906000526020600020905b81548152906001019060200180831161076957829003601f168201915b505050505081565b670de0b6b3a7640000348161079f57fe5b04600160003373ffffffffffffffffffffffffffffffffffffffff1673ffffffffffffffffffffffffffffffffffffffff1681526020019081526020016000205403600160003373ffffffffffffffffffffffffffffffffffffffff1673ffffffffffffffffffffffffffffffffffffffff16815260200190815260200160002081905550565b61082e610ccc565b6002600083815260200190815260200160002060030160009054906101000a900460ff16610891576040517f08c379a000000000000000000000000000000000000000000000000000000000815260040161088890611270565b60405180910390fd5b600260008381526020019081526020016000206001016040516108b49190611180565b60405180910390206000803373ffffffffffffffffffffffffffffffffffffffff1673ffffffffffffffffffffffffffffffffffffffff1681526020019081526020016000206040516109079190611180565b60405180910390201415610aa35760026000838152602001908152602001600020604051806080016040529081600082018054600181600116156101000203166002900480601f0160208091040260200160405190810160405280929190818152602001828054600181600116156101000203166002900480156109cc5780601f106109a1576101008083540402835291602001916109cc565b820191906000526020600020905b8154815290600101906020018083116109af57829003601f168201915b50505050508152602001600182018054600181600116156101000203166002900480601f016020809104026020016040519081016040528092919081815260200182805460018160011615610100020316600290048015610a6e5780601f10610a4357610100808354040283529160200191610a6e565b820191906000526020600020905b815481529060010190602001808311610a5157829003601f168201915b50505050508152602001600282015481526020016003820160009054906101000a900460ff1615151515815250509050610ae9565b6005600160003373ffffffffffffffffffffffffffffffffffffffff1673ffffffffffffffffffffffffffffffffffffffff168152602001908152602001600020819055505b919050565b60606000803373ffffffffffffffffffffffffffffffffffffffff1673ffffffffffffffffffffffffffffffffffffffff1681526020019081526020016000208054600181600116156101000203166002900480601f016020809104026020016040519081016040528092919081815260200182805460018160011615610100020316600290048015610bc25780601f10610b9757610100808354040283529160200191610bc2565b820191906000526020600020905b815481529060010190602001808311610ba557829003601f168201915b5050505050905090565b828054600181600116156101000203166002900490600052602060002090601f016020900481019282601f10610c0d57805160ff1916838001178555610c3b565b82800160010185558215610c3b579182015b82811115610c3a578251825591602001919060010190610c1f565b5b509050610c489190610cf6565b5090565b828054600181600116156101000203166002900490600052602060002090601f016020900481019282601f10610c8d57805160ff1916838001178555610cbb565b82800160010185558215610cbb579182015b82811115610cba578251825591602001919060010190610c9f565b5b509050610cc89190610cf6565b5090565b60405180608001604052806060815260200160608152602001600081526020016000151581525090565b610d1891905b80821115610d14576000816000905550600101610cfc565b5090565b90565b600081359050610d2a81611452565b92915050565b600082601f830112610d4157600080fd5b8135610d54610d4f826112fa565b6112cd565b91508082526020830160208301858383011115610d7057600080fd5b610d7b8382846113ff565b50505092915050565b600081359050610d9381611469565b92915050565b600060208284031215610dab57600080fd5b6000610db984828501610d1b565b91505092915050565b600060208284031215610dd457600080fd5b600082013567ffffffffffffffff811115610dee57600080fd5b610dfa84828501610d30565b91505092915050565b600060208284031215610e1557600080fd5b6000610e2384828501610d84565b91505092915050565b600080600060608486031215610e4157600080fd5b6000610e4f86828701610d84565b935050602084013567ffffffffffffffff811115610e6c57600080fd5b610e7886828701610d30565b925050604084013567ffffffffffffffff811115610e9557600080fd5b610ea186828701610d30565b9150509250925092565b6000610eb78383611162565b60208301905092915050565b6000610ece8261134b565b610ed88185611379565b9350610ee383611326565b8060005b83811015610f14578151610efb8882610eab565b9750610f068361136c565b925050600181019050610ee7565b5085935050505092915050565b610f2a816113c9565b82525050565b610f39816113c9565b82525050565b600081546001811660008114610f5c5760018114610f8157610fc5565b607f6002830416610f6d818761138a565b955060ff1983168652808601935050610fc5565b60028204610f8f818761138a565b9550610f9a85611336565b60005b82811015610fbc57815481890152600182019150602081019050610f9d565b82880195505050505b505092915050565b6000610fd882611361565b610fe281856113a6565b9350610ff281856020860161140e565b610ffb81611441565b840191505092915050565b600061101182611356565b61101b8185611395565b935061102b81856020860161140e565b61103481611441565b840191505092915050565b600061104a82611356565b61105481856113a6565b935061106481856020860161140e565b61106d81611441565b840191505092915050565b60006110856016836113a6565b91507f426172636f646520616c726561647920657869737473000000000000000000006000830152602082019050919050565b60006110c56016836113a6565b91507f50726f6475637420646f65736e742065787369737473000000000000000000006000830152602082019050919050565b600060808301600083015184820360008601526111158282611006565b9150506020830151848203602086015261112f8282611006565b91505060408301516111446040860182611162565b5060608301516111576060860182610f21565b508091505092915050565b61116b816113f5565b82525050565b61117a816113f5565b82525050565b600061118c8284610f3f565b915081905092915050565b600060208201905081810360008301526111b18184610ec3565b905092915050565b600060208201905081810360008301526111d3818461103f565b905092915050565b600060208201905081810360008301526111f58184610fcd565b905092915050565b60006080820190508181036000830152611217818761103f565b9050818103602083015261122b818661103f565b905061123a6040830185611171565b6112476060830184610f30565b95945050505050565b6000602082019050818103600083015261126981611078565b9050919050565b60006020820190508181036000830152611289816110b8565b9050919050565b600060208201905081810360008301526112aa81846110f8565b905092915050565b60006020820190506112c76000830184611171565b92915050565b6000604051905081810181811067ffffffffffffffff821117156112f057600080fd5b8060405250919050565b600067ffffffffffffffff82111561131157600080fd5b601f19601f8301169050602081019050919050565b6000819050602082019050919050565b60008190508160005260206000209050919050565b600081519050919050565b600081519050919050565b600081519050919050565b6000602082019050919050565b600082825260208201905092915050565b600081905092915050565b600082825260208201905092915050565b600082825260208201905092915050565b60006113c2826113d5565b9050919050565b60008115159050919050565b600073ffffffffffffffffffffffffffffffffffffffff82169050919050565b6000819050919050565b82818337600083830152505050565b60005b8381101561142c578082015181840152602081019050611411565b8381111561143b576000848401525b50505050565b6000601f19601f8301169050919050565b61145b816113b7565b811461146657600080fd5b50565b611472816113f5565b811461147d57600080fd5b5056fea365627a7a723158203cfb53c978f732ca10679a5c12d2f97fc801a5b53ecca0e72b1c9d34036fe8046c6578706572696d656e74616cf564736f6c63430005100040",
  "source": "// SPDX-License-Identifier: MIT\npragma solidity >=0.4.21 <0.7.0;\npragma experimental ABIEncoderV2;\n\ncontract ProductContract {\n    struct ProductData {\n        string name;\n        string location;\n        uint barcode;\n        bool exists;\n    }\n    \n    mapping (address => string) public users; // the storage of the panelties\n    mapping (address => uint) public penalties; // the storage of the panelties\n\n    mapping (uint => ProductData) public productStructs; // the storage of the products\n    uint[] public productList; // keeping track of the amount of products\n\n    function addUser(string memory location) public {\n        users[msg.sender] = location;\n    }\n\n    function getProduct(uint barcode) public returns(ProductData memory) {\n        require (productStructs[barcode].exists, 'Product doesnt exsists');\n        \n        if (keccak256(bytes(users[msg.sender])) == keccak256(bytes(productStructs[barcode].location))) {\n            return productStructs[barcode];\n        } else {\n            penalties[msg.sender] = 5;\n        }       \n    }\n\n    function add(uint barcode, string memory location, string memory name) public returns(uint) {\n        if(productStructs[barcode].exists) revert ('Barcode already exists');\n\n        productStructs[barcode] = ProductData(name, location, barcode, true);\n        productList.push(barcode);\n\n        return barcode;\n    }\n    \n    function all() view public returns(uint[] memory) {\n        return productList;\n    }\n    \n    function count() view public returns (uint) {\n        return productList.length;\n    }\n\n    function penalty() view public returns (uint) {\n        return penalties[msg.sender];\n    }\n\n    function payPenalty() public payable {\n        penalties[msg.sender] = penalties[msg.sender] - msg.value /(1 ether);\n    }\n\n    function checkUser() view public returns (string memory) {\n        return users[msg.sender];\n    }\n}\n",
  "sourcePath": "/Users/jasper/Code/blockchainavans/contracts/ProductContract.sol",
  "compiler": {
    "name": "solc",
    "version": "0.5.16+commit.9c3226ce.Emscripten.clang"
  },
  "schemaVersion": "3.4.3",
  "updatedAt": "2021-11-01T22:35:59.579Z",
  "networkType": "ethereum",
  "devdoc": {
    "methods": {}
  },
  "userdoc": {
    "methods": {}
  }
}