{
  "contractName": "ProductContract",
  "abi": [
    {
      "anonymous": false,
      "inputs": [
        {
          "indexed": false,
          "internalType": "string",
          "name": "_message",
          "type": "string"
        }
      ],
      "name": "PaneltyAdded",
      "type": "event"
    },
    {
      "anonymous": false,
      "inputs": [
        {
          "indexed": false,
          "internalType": "string",
          "name": "_message",
          "type": "string"
        }
      ],
      "name": "PaneltyPayed",
      "type": "event"
    },
    {
      "anonymous": false,
      "inputs": [
        {
          "indexed": false,
          "internalType": "string",
          "name": "_message",
          "type": "string"
        }
      ],
      "name": "ProductAdded",
      "type": "event"
    },
    {
      "anonymous": false,
      "inputs": [
        {
          "indexed": false,
          "internalType": "string",
          "name": "_message",
          "type": "string"
        }
      ],
      "name": "UserAdded",
      "type": "event"
    },
    {
      "constant": true,
      "inputs": [
        {
          "internalType": "address",
          "name": "",
          "type": "address"
        }
      ],
      "name": "penalties",
      "outputs": [
        {
          "internalType": "uint256",
          "name": "",
          "type": "uint256"
        }
      ],
      "payable": false,
      "stateMutability": "view",
      "type": "function"
    },
    {
      "constant": true,
      "inputs": [
        {
          "internalType": "uint256",
          "name": "",
          "type": "uint256"
        }
      ],
      "name": "productList",
      "outputs": [
        {
          "internalType": "uint256",
          "name": "",
          "type": "uint256"
        }
      ],
      "payable": false,
      "stateMutability": "view",
      "type": "function"
    },
    {
      "constant": true,
      "inputs": [
        {
          "internalType": "uint256",
          "name": "",
          "type": "uint256"
        }
      ],
      "name": "productStructs",
      "outputs": [
        {
          "internalType": "string",
          "name": "name",
          "type": "string"
        },
        {
          "internalType": "string",
          "name": "location",
          "type": "string"
        },
        {
          "internalType": "uint256",
          "name": "barcode",
          "type": "uint256"
        },
        {
          "internalType": "bool",
          "name": "exists",
          "type": "bool"
        }
      ],
      "payable": false,
      "stateMutability": "view",
      "type": "function"
    },
    {
      "constant": true,
      "inputs": [
        {
          "internalType": "address",
          "name": "",
          "type": "address"
        }
      ],
      "name": "users",
      "outputs": [
        {
          "internalType": "string",
          "name": "",
          "type": "string"
        }
      ],
      "payable": false,
      "stateMutability": "view",
      "type": "function"
    },
    {
      "constant": false,
      "inputs": [
        {
          "internalType": "string",
          "name": "location",
          "type": "string"
        }
      ],
      "name": "addUser",
      "outputs": [],
      "payable": false,
      "stateMutability": "nonpayable",
      "type": "function"
    },
    {
      "constant": false,
      "inputs": [
        {
          "internalType": "uint256",
          "name": "barcode",
          "type": "uint256"
        }
      ],
      "name": "getProduct",
      "outputs": [
        {
          "components": [
            {
              "internalType": "string",
              "name": "name",
              "type": "string"
            },
            {
              "internalType": "string",
              "name": "location",
              "type": "string"
            },
            {
              "internalType": "uint256",
              "name": "barcode",
              "type": "uint256"
            },
            {
              "internalType": "bool",
              "name": "exists",
              "type": "bool"
            }
          ],
          "internalType": "struct ProductContract.ProductData",
          "name": "",
          "type": "tuple"
        }
      ],
      "payable": false,
      "stateMutability": "nonpayable",
      "type": "function"
    },
    {
      "constant": false,
      "inputs": [
        {
          "internalType": "uint256",
          "name": "barcode",
          "type": "uint256"
        },
        {
          "internalType": "string",
          "name": "location",
          "type": "string"
        },
        {
          "internalType": "string",
          "name": "name",
          "type": "string"
        }
      ],
      "name": "add",
      "outputs": [],
      "payable": false,
      "stateMutability": "nonpayable",
      "type": "function"
    },
    {
      "constant": true,
      "inputs": [],
      "name": "all",
      "outputs": [
        {
          "internalType": "uint256[]",
          "name": "",
          "type": "uint256[]"
        }
      ],
      "payable": false,
      "stateMutability": "view",
      "type": "function"
    },
    {
      "constant": true,
      "inputs": [],
      "name": "count",
      "outputs": [
        {
          "internalType": "uint256",
          "name": "",
          "type": "uint256"
        }
      ],
      "payable": false,
      "stateMutability": "view",
      "type": "function"
    },
    {
      "constant": true,
      "inputs": [],
      "name": "penalty",
      "outputs": [
        {
          "internalType": "uint256",
          "name": "",
          "type": "uint256"
        }
      ],
      "payable": false,
      "stateMutability": "view",
      "type": "function"
    },
    {
      "constant": false,
      "inputs": [],
      "name": "payPenalty",
      "outputs": [],
      "payable": true,
      "stateMutability": "payable",
      "type": "function"
    },
    {
      "constant": true,
      "inputs": [],
      "name": "checkUser",
      "outputs": [
        {
          "internalType": "string",
          "name": "",
          "type": "string"
        }
      ],
      "payable": false,
      "stateMutability": "view",
      "type": "function"
    }
  ],
  "bytecode": "0x608060405234801561001057600080fd5b5061173d806100206000396000f3fe6080604052600436106100a75760003560e01c806351a8214b1161006457806351a8214b146101d3578063528c87d2146101fc578063a87430ba14610239578063b404d65d14610276578063b9db15b414610280578063c1562547146102bd576100a7565b806306661abd146100ac5780630edd2ffc146100d757806310c4e8b01461010257806318b8275a1461012d5780632fb1ad101461015657806331e8d9a614610196575b600080fd5b3480156100b857600080fd5b506100c16102e8565b6040516100ce919061152c565b60405180910390f35b3480156100e357600080fd5b506100ec6102f5565b6040516100f9919061152c565b60405180910390f35b34801561010e57600080fd5b5061011761033c565b6040516101249190611391565b60405180910390f35b34801561013957600080fd5b50610154600480360361014f9190810190610ebc565b610394565b005b34801561016257600080fd5b5061017d60048036036101789190810190610efd565b61041f565b60405161018d94939291906113f7565b60405180910390f35b3480156101a257600080fd5b506101bd60048036036101b89190810190610e93565b61058c565b6040516101ca919061152c565b60405180910390f35b3480156101df57600080fd5b506101fa60048036036101f59190810190610f26565b6105a4565b005b34801561020857600080fd5b50610223600480360361021e9190810190610efd565b61070c565b604051610230919061152c565b60405180910390f35b34801561024557600080fd5b50610260600480360361025b9190810190610e93565b61072d565b60405161026d91906113b3565b60405180910390f35b61027e6107dd565b005b34801561028c57600080fd5b506102a760048036036102a29190810190610efd565b6108aa565b6040516102b4919061150a565b60405180910390f35b3480156102c957600080fd5b506102d2610be8565b6040516102df91906113d5565b60405180910390f35b6000600380549050905090565b6000600160003373ffffffffffffffffffffffffffffffffffffffff1673ffffffffffffffffffffffffffffffffffffffff16815260200190815260200160002054905090565b6060600380548060200260200160405190810160405280929190818152602001828054801561038a57602002820191906000526020600020905b815481526020019060010190808311610376575b5050505050905090565b806000803373ffffffffffffffffffffffffffffffffffffffff1673ffffffffffffffffffffffffffffffffffffffff16815260200190815260200160002090805190602001906103e6929190610cc6565b507fdb8f9fd4bfba5ae615ae02e8b4d281b887225fd3d34a5ac7b8d78df768bb63e76040516104149061144a565b60405180910390a150565b6002602052806000526040600020600091509050806000018054600181600116156101000203166002900480601f0160208091040260200160405190810160405280929190818152602001828054600181600116156101000203166002900480156104cb5780601f106104a0576101008083540402835291602001916104cb565b820191906000526020600020905b8154815290600101906020018083116104ae57829003601f168201915b505050505090806001018054600181600116156101000203166002900480601f0160208091040260200160405190810160405280929190818152602001828054600181600116156101000203166002900480156105695780601f1061053e57610100808354040283529160200191610569565b820191906000526020600020905b81548152906001019060200180831161054c57829003601f168201915b5050505050908060020154908060030160009054906101000a900460ff16905084565b60016020528060005260406000206000915090505481565b6002600084815260200190815260200160002060030160009054906101000a900460ff1615610608576040517f08c379a00000000000000000000000000000000000000000000000000000000081526004016105ff9061148a565b60405180910390fd5b60405180608001604052808281526020018381526020018481526020016001151581525060026000858152602001908152602001600020600082015181600001908051906020019061065b929190610d46565b506020820151816001019080519060200190610678929190610d46565b506040820151816002015560608201518160030160006101000a81548160ff02191690831515021790555090505060038390806001815401808255809150509060018203906000526020600020016000909192909190915055507f276b58cbf13b39452b15dc9de0fcf4b0126e4ee90c5cddb1f0c44b9556277dad6040516106ff906114aa565b60405180910390a1505050565b6003818154811061071957fe5b906000526020600020016000915090505481565b60006020528060005260406000206000915090508054600181600116156101000203166002900480601f0160208091040260200160405190810160405280929190818152602001828054600181600116156101000203166002900480156107d55780601f106107aa576101008083540402835291602001916107d5565b820191906000526020600020905b8154815290600101906020018083116107b857829003601f168201915b505050505081565b670de0b6b3a764000034816107ee57fe5b04600160003373ffffffffffffffffffffffffffffffffffffffff1673ffffffffffffffffffffffffffffffffffffffff1681526020019081526020016000205403600160003373ffffffffffffffffffffffffffffffffffffffff1673ffffffffffffffffffffffffffffffffffffffff168152602001908152602001600020819055507f5afbf5beb51b489122fb7e7d232882562e7c2826a048f6f1d7ab2e71ca434b116040516108a0906114ea565b60405180910390a1565b6108b2610dc6565b6002600083815260200190815260200160002060030160009054906101000a900460ff16610915576040517f08c379a000000000000000000000000000000000000000000000000000000000815260040161090c906114ca565b60405180910390fd5b60026000838152602001908152602001600020600101604051610938919061137a565b60405180910390206000803373ffffffffffffffffffffffffffffffffffffffff1673ffffffffffffffffffffffffffffffffffffffff16815260200190815260200160002060405161098b919061137a565b60405180910390201415610b275760026000838152602001908152602001600020604051806080016040529081600082018054600181600116156101000203166002900480601f016020809104026020016040519081016040528092919081815260200182805460018160011615610100020316600290048015610a505780601f10610a2557610100808354040283529160200191610a50565b820191906000526020600020905b815481529060010190602001808311610a3357829003601f168201915b50505050508152602001600182018054600181600116156101000203166002900480601f016020809104026020016040519081016040528092919081815260200182805460018160011615610100020316600290048015610af25780601f10610ac757610100808354040283529160200191610af2565b820191906000526020600020905b815481529060010190602001808311610ad557829003601f168201915b50505050508152602001600282015481526020016003820160009054906101000a900460ff1615151515815250509050610be3565b6005600160003373ffffffffffffffffffffffffffffffffffffffff1673ffffffffffffffffffffffffffffffffffffffff1681526020019081526020016000205401600160003373ffffffffffffffffffffffffffffffffffffffff1673ffffffffffffffffffffffffffffffffffffffff168152602001908152602001600020819055507fcceffa6d82e470812b4c1b85be959206bdb9fc04269db7c63afa163a7b022521604051610bda9061146a565b60405180910390a15b919050565b60606000803373ffffffffffffffffffffffffffffffffffffffff1673ffffffffffffffffffffffffffffffffffffffff1681526020019081526020016000208054600181600116156101000203166002900480601f016020809104026020016040519081016040528092919081815260200182805460018160011615610100020316600290048015610cbc5780601f10610c9157610100808354040283529160200191610cbc565b820191906000526020600020905b815481529060010190602001808311610c9f57829003601f168201915b5050505050905090565b828054600181600116156101000203166002900490600052602060002090601f016020900481019282601f10610d0757805160ff1916838001178555610d35565b82800160010185558215610d35579182015b82811115610d34578251825591602001919060010190610d19565b5b509050610d429190610df0565b5090565b828054600181600116156101000203166002900490600052602060002090601f016020900481019282601f10610d8757805160ff1916838001178555610db5565b82800160010185558215610db5579182015b82811115610db4578251825591602001919060010190610d99565b5b509050610dc29190610df0565b5090565b60405180608001604052806060815260200160608152602001600081526020016000151581525090565b610e1291905b80821115610e0e576000816000905550600101610df6565b5090565b90565b600081359050610e24816116cc565b92915050565b600082601f830112610e3b57600080fd5b8135610e4e610e4982611574565b611547565b91508082526020830160208301858383011115610e6a57600080fd5b610e75838284611679565b50505092915050565b600081359050610e8d816116e3565b92915050565b600060208284031215610ea557600080fd5b6000610eb384828501610e15565b91505092915050565b600060208284031215610ece57600080fd5b600082013567ffffffffffffffff811115610ee857600080fd5b610ef484828501610e2a565b91505092915050565b600060208284031215610f0f57600080fd5b6000610f1d84828501610e7e565b91505092915050565b600080600060608486031215610f3b57600080fd5b6000610f4986828701610e7e565b935050602084013567ffffffffffffffff811115610f6657600080fd5b610f7286828701610e2a565b925050604084013567ffffffffffffffff811115610f8f57600080fd5b610f9b86828701610e2a565b9150509250925092565b6000610fb1838361135c565b60208301905092915050565b6000610fc8826115c5565b610fd281856115f3565b9350610fdd836115a0565b8060005b8381101561100e578151610ff58882610fa5565b9750611000836115e6565b925050600181019050610fe1565b5085935050505092915050565b61102481611643565b82525050565b61103381611643565b82525050565b600081546001811660008114611056576001811461107b576110bf565b607f60028304166110678187611604565b955060ff19831686528086019350506110bf565b600282046110898187611604565b9550611094856115b0565b60005b828110156110b657815481890152600182019150602081019050611097565b82880195505050505b505092915050565b60006110d2826115db565b6110dc8185611620565b93506110ec818560208601611688565b6110f5816116bb565b840191505092915050565b600061110b826115d0565b611115818561160f565b9350611125818560208601611688565b61112e816116bb565b840191505092915050565b6000611144826115d0565b61114e8185611620565b935061115e818560208601611688565b611167816116bb565b840191505092915050565b600061117f601483611620565b91507f4765627275696b657220746f656765766f6567640000000000000000000000006000830152602082019050919050565b60006111bf600f83611620565b91507f426f65746520746f6567656b656e6400000000000000000000000000000000006000830152602082019050919050565b60006111ff601683611620565b91507f426172636f646520616c726561647920657869737473000000000000000000006000830152602082019050919050565b600061123f601d83611620565b91507f50726f6475637420737563636573766f6c20746f656765766f656764210000006000830152602082019050919050565b600061127f601683611620565b91507f50726f6475637420646f65736e742065787369737473000000000000000000006000830152602082019050919050565b60006112bf600e83611620565b91507f426f6574652062657461616c64210000000000000000000000000000000000006000830152602082019050919050565b6000608083016000830151848203600086015261130f8282611100565b915050602083015184820360208601526113298282611100565b915050604083015161133e604086018261135c565b506060830151611351606086018261101b565b508091505092915050565b6113658161166f565b82525050565b6113748161166f565b82525050565b60006113868284611039565b915081905092915050565b600060208201905081810360008301526113ab8184610fbd565b905092915050565b600060208201905081810360008301526113cd8184611139565b905092915050565b600060208201905081810360008301526113ef81846110c7565b905092915050565b600060808201905081810360008301526114118187611139565b905081810360208301526114258186611139565b9050611434604083018561136b565b611441606083018461102a565b95945050505050565b6000602082019050818103600083015261146381611172565b9050919050565b60006020820190508181036000830152611483816111b2565b9050919050565b600060208201905081810360008301526114a3816111f2565b9050919050565b600060208201905081810360008301526114c381611232565b9050919050565b600060208201905081810360008301526114e381611272565b9050919050565b60006020820190508181036000830152611503816112b2565b9050919050565b6000602082019050818103600083015261152481846112f2565b905092915050565b6000602082019050611541600083018461136b565b92915050565b6000604051905081810181811067ffffffffffffffff8211171561156a57600080fd5b8060405250919050565b600067ffffffffffffffff82111561158b57600080fd5b601f19601f8301169050602081019050919050565b6000819050602082019050919050565b60008190508160005260206000209050919050565b600081519050919050565b600081519050919050565b600081519050919050565b6000602082019050919050565b600082825260208201905092915050565b600081905092915050565b600082825260208201905092915050565b600082825260208201905092915050565b600061163c8261164f565b9050919050565b60008115159050919050565b600073ffffffffffffffffffffffffffffffffffffffff82169050919050565b6000819050919050565b82818337600083830152505050565b60005b838110156116a657808201518184015260208101905061168b565b838111156116b5576000848401525b50505050565b6000601f19601f8301169050919050565b6116d581611631565b81146116e057600080fd5b50565b6116ec8161166f565b81146116f757600080fd5b5056fea365627a7a723158203fb29eeccca94725ccb083c6365c05ba5c2e44df336bb1e0a5253a662225c92d6c6578706572696d656e74616cf564736f6c63430005100040",
  "source": "// SPDX-License-Identifier: MIT\npragma solidity >=0.4.21 <0.7.0;\npragma experimental ABIEncoderV2;\n\ncontract ProductContract {\n    event ProductAdded(string _message);\n    event PaneltyAdded(string _message);\n    event PaneltyPayed(string _message);\n    event UserAdded(string _message);\n\n    struct ProductData {\n        string name;\n        string location;\n        uint barcode;\n        bool exists;\n    }\n    \n    mapping (address => string) public users; // the storage of the panelties\n    mapping (address => uint) public penalties; // the storage of the panelties\n\n    mapping (uint => ProductData) public productStructs; // the storage of the products\n    uint[] public productList; // keeping track of the amount of products\n\n    function addUser(string memory location) public {\n        users[msg.sender] = location;\n\n        emit UserAdded(\"Gebruiker toegevoegd\");\n    }\n\n    function getProduct(uint barcode) public returns(ProductData memory) {\n        require (productStructs[barcode].exists, 'Product doesnt exsists');\n        \n        if (keccak256(bytes(users[msg.sender])) == keccak256(bytes(productStructs[barcode].location))) {\n            return productStructs[barcode];\n        } else {\n            penalties[msg.sender] = penalties[msg.sender] + 5;\n            \n            emit PaneltyAdded(\"Boete toegekend\");\n        }       \n    }\n\n    function add(uint barcode, string memory location, string memory name) public {\n        if(productStructs[barcode].exists) revert ('Barcode already exists');\n\n        productStructs[barcode] = ProductData(name, location, barcode, true);\n        productList.push(barcode);\n\n        emit ProductAdded(\"Product succesvol toegevoegd!\");\n    }\n    \n    function all() view public returns(uint[] memory) {\n        return productList;\n    }\n    \n    function count() view public returns (uint) {\n        return productList.length;\n    }\n\n    function penalty() view public returns (uint) {\n        return penalties[msg.sender];\n    }\n\n    function payPenalty() public payable {\n        penalties[msg.sender] = penalties[msg.sender] - msg.value /(1 ether);\n\n        emit PaneltyPayed(\"Boete betaald!\");\n    }\n\n    function checkUser() view public returns (string memory) {\n        return users[msg.sender];\n    }\n}\n",
  "sourcePath": "/Users/jasper/Code/blockchainavans/contracts/ProductContract.sol",
  "compiler": {
    "name": "solc",
    "version": "0.5.16+commit.9c3226ce.Emscripten.clang"
  },
  "schemaVersion": "3.4.3",
  "updatedAt": "2021-11-02T10:20:44.558Z",
  "networkType": "ethereum",
  "devdoc": {
    "methods": {}
  },
  "userdoc": {
    "methods": {}
  }
}