{
  "contractName": "ProductContract",
  "abi": [
    {
      "constant": true,
      "inputs": [
        {
          "internalType": "address",
          "name": "",
          "type": "address"
        }
      ],
      "name": "paneltyStrucs",
      "outputs": [
        {
          "internalType": "uint256",
          "name": "barcode",
          "type": "uint256"
        },
        {
          "internalType": "uint256",
          "name": "amount",
          "type": "uint256"
        }
      ],
      "payable": false,
      "stateMutability": "view",
      "type": "function"
    },
    {
      "constant": true,
      "inputs": [
        {
          "internalType": "uint256",
          "name": "",
          "type": "uint256"
        }
      ],
      "name": "productList",
      "outputs": [
        {
          "internalType": "uint256",
          "name": "",
          "type": "uint256"
        }
      ],
      "payable": false,
      "stateMutability": "view",
      "type": "function"
    },
    {
      "constant": true,
      "inputs": [
        {
          "internalType": "uint256",
          "name": "",
          "type": "uint256"
        }
      ],
      "name": "productStructs",
      "outputs": [
        {
          "internalType": "string",
          "name": "name",
          "type": "string"
        },
        {
          "internalType": "string",
          "name": "location",
          "type": "string"
        },
        {
          "internalType": "uint256",
          "name": "barcode",
          "type": "uint256"
        },
        {
          "internalType": "bool",
          "name": "exists",
          "type": "bool"
        }
      ],
      "payable": false,
      "stateMutability": "view",
      "type": "function"
    },
    {
      "constant": true,
      "inputs": [
        {
          "internalType": "address",
          "name": "",
          "type": "address"
        }
      ],
      "name": "users",
      "outputs": [
        {
          "internalType": "string",
          "name": "",
          "type": "string"
        }
      ],
      "payable": false,
      "stateMutability": "view",
      "type": "function"
    },
    {
      "constant": false,
      "inputs": [
        {
          "internalType": "string",
          "name": "location",
          "type": "string"
        }
      ],
      "name": "addUser",
      "outputs": [],
      "payable": false,
      "stateMutability": "nonpayable",
      "type": "function"
    },
    {
      "constant": false,
      "inputs": [
        {
          "internalType": "uint256",
          "name": "barcode",
          "type": "uint256"
        }
      ],
      "name": "getProduct",
      "outputs": [
        {
          "components": [
            {
              "internalType": "string",
              "name": "name",
              "type": "string"
            },
            {
              "internalType": "string",
              "name": "location",
              "type": "string"
            },
            {
              "internalType": "uint256",
              "name": "barcode",
              "type": "uint256"
            },
            {
              "internalType": "bool",
              "name": "exists",
              "type": "bool"
            }
          ],
          "internalType": "struct ProductContract.ProductData",
          "name": "",
          "type": "tuple"
        }
      ],
      "payable": false,
      "stateMutability": "nonpayable",
      "type": "function"
    },
    {
      "constant": false,
      "inputs": [
        {
          "internalType": "uint256",
          "name": "barcode",
          "type": "uint256"
        },
        {
          "internalType": "string",
          "name": "location",
          "type": "string"
        },
        {
          "internalType": "string",
          "name": "name",
          "type": "string"
        }
      ],
      "name": "add",
      "outputs": [
        {
          "internalType": "uint256",
          "name": "",
          "type": "uint256"
        }
      ],
      "payable": false,
      "stateMutability": "nonpayable",
      "type": "function"
    },
    {
      "constant": true,
      "inputs": [],
      "name": "all",
      "outputs": [
        {
          "internalType": "uint256[]",
          "name": "",
          "type": "uint256[]"
        }
      ],
      "payable": false,
      "stateMutability": "view",
      "type": "function"
    },
    {
      "constant": true,
      "inputs": [],
      "name": "count",
      "outputs": [
        {
          "internalType": "uint256",
          "name": "",
          "type": "uint256"
        }
      ],
      "payable": false,
      "stateMutability": "view",
      "type": "function"
    },
    {
      "constant": true,
      "inputs": [],
      "name": "panelty",
      "outputs": [
        {
          "components": [
            {
              "internalType": "uint256",
              "name": "barcode",
              "type": "uint256"
            },
            {
              "internalType": "uint256",
              "name": "amount",
              "type": "uint256"
            }
          ],
          "internalType": "struct ProductContract.PaneltyData",
          "name": "",
          "type": "tuple"
        }
      ],
      "payable": false,
      "stateMutability": "view",
      "type": "function"
    },
    {
      "constant": true,
      "inputs": [],
      "name": "checkUser",
      "outputs": [
        {
          "internalType": "string",
          "name": "",
          "type": "string"
        }
      ],
      "payable": false,
      "stateMutability": "view",
      "type": "function"
    }
  ],
  "bytecode": "0x608060405234801561001057600080fd5b50611558806100206000396000f3fe608060405234801561001057600080fd5b50600436106100a95760003560e01c806351a8214b1161007157806351a8214b1461016a578063528c87d21461019a5780639eca31ed146101ca578063a87430ba146101e8578063b9db15b414610218578063c156254714610248576100a9565b806306661abd146100ae57806310c4e8b0146100cc57806318b8275a146100ea5780632fb1ad101461010657806349e5492b14610139575b600080fd5b6100b6610266565b6040516100c3919061131e565b60405180910390f35b6100d4610273565b6040516100e191906111c8565b60405180910390f35b61010460048036036100ff9190810190610d5e565b6102cb565b005b610120600480360361011b9190810190610d9f565b610321565b604051610130949392919061122e565b60405180910390f35b610153600480360361014e9190810190610d35565b61048e565b604051610161929190611339565b60405180910390f35b610184600480360361017f9190810190610dc8565b6104b2565b604051610191919061131e565b60405180910390f35b6101b460048036036101af9190810190610d9f565b6105ec565b6040516101c1919061131e565b60405180910390f35b6101d261060d565b6040516101df91906112e1565b60405180910390f35b61020260048036036101fd9190810190610d35565b610678565b60405161020f91906111ea565b60405180910390f35b610232600480360361022d9190810190610d9f565b610728565b60405161023f91906112fc565b60405180910390f35b610250610a70565b60405161025d919061120c565b60405180910390f35b6000600380549050905090565b606060038054806020026020016040519081016040528092919081815260200182805480156102c157602002820191906000526020600020905b8154815260200190600101908083116102ad575b5050505050905090565b806000803373ffffffffffffffffffffffffffffffffffffffff1673ffffffffffffffffffffffffffffffffffffffff168152602001908152602001600020908051906020019061031d929190610b4e565b5050565b6002602052806000526040600020600091509050806000018054600181600116156101000203166002900480601f0160208091040260200160405190810160405280929190818152602001828054600181600116156101000203166002900480156103cd5780601f106103a2576101008083540402835291602001916103cd565b820191906000526020600020905b8154815290600101906020018083116103b057829003601f168201915b505050505090806001018054600181600116156101000203166002900480601f01602080910402602001604051908101604052809291908181526020018280546001816001161561010002031660029004801561046b5780601f106104405761010080835404028352916020019161046b565b820191906000526020600020905b81548152906001019060200180831161044e57829003601f168201915b5050505050908060020154908060030160009054906101000a900460ff16905084565b60016020528060005260406000206000915090508060000154908060010154905082565b60006002600085815260200190815260200160002060030160009054906101000a900460ff1615610518576040517f08c379a000000000000000000000000000000000000000000000000000000000815260040161050f906112a1565b60405180910390fd5b60405180608001604052808381526020018481526020018581526020016001151581525060026000868152602001908152602001600020600082015181600001908051906020019061056b929190610bce565b506020820151816001019080519060200190610588929190610bce565b506040820151816002015560608201518160030160006101000a81548160ff02191690831515021790555090505060038490806001815401808255809150509060018203906000526020600020016000909192909190915055508390509392505050565b600381815481106105f957fe5b906000526020600020016000915090505481565b610615610c4e565b600160003373ffffffffffffffffffffffffffffffffffffffff1673ffffffffffffffffffffffffffffffffffffffff16815260200190815260200160002060405180604001604052908160008201548152602001600182015481525050905090565b60006020528060005260406000206000915090508054600181600116156101000203166002900480601f0160208091040260200160405190810160405280929190818152602001828054600181600116156101000203166002900480156107205780601f106106f557610100808354040283529160200191610720565b820191906000526020600020905b81548152906001019060200180831161070357829003601f168201915b505050505081565b610730610c68565b6002600083815260200190815260200160002060030160009054906101000a900460ff16610793576040517f08c379a000000000000000000000000000000000000000000000000000000000815260040161078a906112c1565b60405180910390fd5b600260008381526020019081526020016000206001016040516107b691906111b1565b60405180910390206000803373ffffffffffffffffffffffffffffffffffffffff1673ffffffffffffffffffffffffffffffffffffffff16815260200190815260200160002060405161080991906111b1565b604051809103902014156109a55760026000838152602001908152602001600020604051806080016040529081600082018054600181600116156101000203166002900480601f0160208091040260200160405190810160405280929190818152602001828054600181600116156101000203166002900480156108ce5780601f106108a3576101008083540402835291602001916108ce565b820191906000526020600020905b8154815290600101906020018083116108b157829003601f168201915b50505050508152602001600182018054600181600116156101000203166002900480601f0160208091040260200160405190810160405280929190818152602001828054600181600116156101000203166002900480156109705780601f1061094557610100808354040283529160200191610970565b820191906000526020600020905b81548152906001019060200180831161095357829003601f168201915b50505050508152602001600282015481526020016003820160009054906101000a900460ff1615151515815250509050610a6b565b60018060003373ffffffffffffffffffffffffffffffffffffffff1673ffffffffffffffffffffffffffffffffffffffff1681526020019081526020016000206001015401600160003373ffffffffffffffffffffffffffffffffffffffff1673ffffffffffffffffffffffffffffffffffffffff168152602001908152602001600020600101819055506040517f08c379a0000000000000000000000000000000000000000000000000000000008152600401610a6290611281565b60405180910390fd5b919050565b60606000803373ffffffffffffffffffffffffffffffffffffffff1673ffffffffffffffffffffffffffffffffffffffff1681526020019081526020016000208054600181600116156101000203166002900480601f016020809104026020016040519081016040528092919081815260200182805460018160011615610100020316600290048015610b445780601f10610b1957610100808354040283529160200191610b44565b820191906000526020600020905b815481529060010190602001808311610b2757829003601f168201915b5050505050905090565b828054600181600116156101000203166002900490600052602060002090601f016020900481019282601f10610b8f57805160ff1916838001178555610bbd565b82800160010185558215610bbd579182015b82811115610bbc578251825591602001919060010190610ba1565b5b509050610bca9190610c92565b5090565b828054600181600116156101000203166002900490600052602060002090601f016020900481019282601f10610c0f57805160ff1916838001178555610c3d565b82800160010185558215610c3d579182015b82811115610c3c578251825591602001919060010190610c21565b5b509050610c4a9190610c92565b5090565b604051806040016040528060008152602001600081525090565b60405180608001604052806060815260200160608152602001600081526020016000151581525090565b610cb491905b80821115610cb0576000816000905550600101610c98565b5090565b90565b600081359050610cc6816114e7565b92915050565b600082601f830112610cdd57600080fd5b8135610cf0610ceb8261138f565b611362565b91508082526020830160208301858383011115610d0c57600080fd5b610d17838284611494565b50505092915050565b600081359050610d2f816114fe565b92915050565b600060208284031215610d4757600080fd5b6000610d5584828501610cb7565b91505092915050565b600060208284031215610d7057600080fd5b600082013567ffffffffffffffff811115610d8a57600080fd5b610d9684828501610ccc565b91505092915050565b600060208284031215610db157600080fd5b6000610dbf84828501610d20565b91505092915050565b600080600060608486031215610ddd57600080fd5b6000610deb86828701610d20565b935050602084013567ffffffffffffffff811115610e0857600080fd5b610e1486828701610ccc565b925050604084013567ffffffffffffffff811115610e3157600080fd5b610e3d86828701610ccc565b9150509250925092565b6000610e538383611193565b60208301905092915050565b6000610e6a826113e0565b610e74818561140e565b9350610e7f836113bb565b8060005b83811015610eb0578151610e978882610e47565b9750610ea283611401565b925050600181019050610e83565b5085935050505092915050565b610ec68161145e565b82525050565b610ed58161145e565b82525050565b600081546001811660008114610ef85760018114610f1d57610f61565b607f6002830416610f09818761141f565b955060ff1983168652808601935050610f61565b60028204610f2b818761141f565b9550610f36856113cb565b60005b82811015610f5857815481890152600182019150602081019050610f39565b82880195505050505b505092915050565b6000610f74826113f6565b610f7e818561143b565b9350610f8e8185602086016114a3565b610f97816114d6565b840191505092915050565b6000610fad826113eb565b610fb7818561142a565b9350610fc78185602086016114a3565b610fd0816114d6565b840191505092915050565b6000610fe6826113eb565b610ff0818561143b565b93506110008185602086016114a3565b611009816114d6565b840191505092915050565b6000611021602a8361143b565b91507f50656e616c747920676976656e2c20706c6561736520636865636b20796f757260008301527f2070616e656c74696573000000000000000000000000000000000000000000006020830152604082019050919050565b600061108760168361143b565b91507f426172636f646520616c726561647920657869737473000000000000000000006000830152602082019050919050565b60006110c760168361143b565b91507f50726f6475637420646f65736e742065787369737473000000000000000000006000830152602082019050919050565b6040820160008201516111106000850182611193565b5060208201516111236020850182611193565b50505050565b600060808301600083015184820360008601526111468282610fa2565b915050602083015184820360208601526111608282610fa2565b91505060408301516111756040860182611193565b5060608301516111886060860182610ebd565b508091505092915050565b61119c8161148a565b82525050565b6111ab8161148a565b82525050565b60006111bd8284610edb565b915081905092915050565b600060208201905081810360008301526111e28184610e5f565b905092915050565b600060208201905081810360008301526112048184610fdb565b905092915050565b600060208201905081810360008301526112268184610f69565b905092915050565b600060808201905081810360008301526112488187610fdb565b9050818103602083015261125c8186610fdb565b905061126b60408301856111a2565b6112786060830184610ecc565b95945050505050565b6000602082019050818103600083015261129a81611014565b9050919050565b600060208201905081810360008301526112ba8161107a565b9050919050565b600060208201905081810360008301526112da816110ba565b9050919050565b60006040820190506112f660008301846110fa565b92915050565b600060208201905081810360008301526113168184611129565b905092915050565b600060208201905061133360008301846111a2565b92915050565b600060408201905061134e60008301856111a2565b61135b60208301846111a2565b9392505050565b6000604051905081810181811067ffffffffffffffff8211171561138557600080fd5b8060405250919050565b600067ffffffffffffffff8211156113a657600080fd5b601f19601f8301169050602081019050919050565b6000819050602082019050919050565b60008190508160005260206000209050919050565b600081519050919050565b600081519050919050565b600081519050919050565b6000602082019050919050565b600082825260208201905092915050565b600081905092915050565b600082825260208201905092915050565b600082825260208201905092915050565b60006114578261146a565b9050919050565b60008115159050919050565b600073ffffffffffffffffffffffffffffffffffffffff82169050919050565b6000819050919050565b82818337600083830152505050565b60005b838110156114c15780820151818401526020810190506114a6565b838111156114d0576000848401525b50505050565b6000601f19601f8301169050919050565b6114f08161144c565b81146114fb57600080fd5b50565b6115078161148a565b811461151257600080fd5b5056fea365627a7a723158207067d163753d52753d921a8d8ebb724f20fe5d5df8c07f97259b6b54a40c38b46c6578706572696d656e74616cf564736f6c63430005100040",
  "source": "// SPDX-License-Identifier: MIT\npragma solidity >=0.4.21 <0.7.0;\npragma experimental ABIEncoderV2;\n\ncontract ProductContract {\n    struct ProductData {\n        string name;\n        string location;\n        uint barcode;\n        bool exists;\n    }\n\n    struct PaneltyData {\n        uint barcode;\n        uint amount;\n    }\n    \n    mapping (address => string) public users; // the storage of the panelties\n    mapping (address => PaneltyData) public paneltyStrucs; // the storage of the panelties\n\n    mapping (uint => ProductData) public productStructs; // the storage of the products\n    uint[] public productList; // keeping track of the amount of products\n\n    function addUser(string memory location) public {\n        users[msg.sender] = location;\n    }\n\n    function getProduct(uint barcode) public returns(ProductData memory) {\n        require (productStructs[barcode].exists, 'Product doesnt exsists');\n        \n        if (keccak256(bytes(users[msg.sender])) == keccak256(bytes(productStructs[barcode].location))) {\n            return productStructs[barcode];\n        } else {\n            paneltyStrucs[msg.sender].amount = paneltyStrucs[msg.sender].amount + 1;\n\n            revert ('Penalty given, please check your panelties');\n        }       \n    }\n\n    function add(uint barcode, string memory location, string memory name) public returns(uint) {\n        if(productStructs[barcode].exists) revert ('Barcode already exists');\n\n        productStructs[barcode] = ProductData(name, location, barcode, true);\n        productList.push(barcode);\n\n        return barcode;\n    }\n    \n    function all() view public returns(uint[] memory) {\n        return productList;\n    }\n    \n    function count() view public returns (uint) {\n        return productList.length;\n    }\n\n    function panelty() view public returns (PaneltyData memory) {\n        return paneltyStrucs[msg.sender];\n    }\n\n    function checkUser() view public returns (string memory) {\n        return users[msg.sender];\n    }\n}\n",
  "sourcePath": "/Users/jasper/Code/blockchainavans/contracts/ProductContract.sol",
  "compiler": {
    "name": "solc",
    "version": "0.5.16+commit.9c3226ce.Emscripten.clang"
  },
  "schemaVersion": "3.4.3",
  "updatedAt": "2021-11-01T17:08:40.595Z",
  "networkType": "ethereum",
  "devdoc": {
    "methods": {}
  },
  "userdoc": {
    "methods": {}
  }
}