{
  "contractName": "ProductContract",
  "abi": [
    {
      "constant": true,
      "inputs": [
        {
          "internalType": "uint256",
          "name": "",
          "type": "uint256"
        }
      ],
      "name": "productList",
      "outputs": [
        {
          "internalType": "uint256",
          "name": "",
          "type": "uint256"
        }
      ],
      "payable": false,
      "stateMutability": "view",
      "type": "function"
    },
    {
      "constant": true,
      "inputs": [
        {
          "internalType": "uint256",
          "name": "",
          "type": "uint256"
        }
      ],
      "name": "productStructs",
      "outputs": [
        {
          "internalType": "string",
          "name": "name",
          "type": "string"
        },
        {
          "internalType": "string",
          "name": "location",
          "type": "string"
        },
        {
          "internalType": "uint256",
          "name": "barcode",
          "type": "uint256"
        }
      ],
      "payable": false,
      "stateMutability": "view",
      "type": "function"
    },
    {
      "constant": true,
      "inputs": [
        {
          "internalType": "uint256",
          "name": "barcode",
          "type": "uint256"
        }
      ],
      "name": "getLocation",
      "outputs": [
        {
          "internalType": "string",
          "name": "",
          "type": "string"
        }
      ],
      "payable": false,
      "stateMutability": "view",
      "type": "function"
    },
    {
      "constant": true,
      "inputs": [
        {
          "internalType": "uint256",
          "name": "barcode",
          "type": "uint256"
        }
      ],
      "name": "getName",
      "outputs": [
        {
          "internalType": "string",
          "name": "",
          "type": "string"
        }
      ],
      "payable": false,
      "stateMutability": "view",
      "type": "function"
    },
    {
      "constant": false,
      "inputs": [
        {
          "internalType": "uint256",
          "name": "barcode",
          "type": "uint256"
        },
        {
          "internalType": "string",
          "name": "location",
          "type": "string"
        },
        {
          "internalType": "string",
          "name": "name",
          "type": "string"
        }
      ],
      "name": "add",
      "outputs": [
        {
          "internalType": "uint256",
          "name": "",
          "type": "uint256"
        }
      ],
      "payable": false,
      "stateMutability": "nonpayable",
      "type": "function"
    },
    {
      "constant": true,
      "inputs": [],
      "name": "all",
      "outputs": [
        {
          "internalType": "uint256[]",
          "name": "",
          "type": "uint256[]"
        }
      ],
      "payable": false,
      "stateMutability": "view",
      "type": "function"
    },
    {
      "constant": true,
      "inputs": [],
      "name": "count",
      "outputs": [
        {
          "internalType": "uint256",
          "name": "",
          "type": "uint256"
        }
      ],
      "payable": false,
      "stateMutability": "view",
      "type": "function"
    }
  ],
  "bytecode": "0x608060405234801561001057600080fd5b506109e7806100206000396000f3fe608060405234801561001057600080fd5b506004361061007d5760003560e01c806351a8214b1161005b57806351a8214b14610219578063528c87d2146103895780636b8ff574146103cb5780637f7b1393146104725761007d565b806306661abd1461008257806310c4e8b0146100a05780632fb1ad10146100ff575b600080fd5b61008a610519565b6040518082815260200191505060405180910390f35b6100a8610526565b6040518080602001828103825283818151815260200191508051906020019060200280838360005b838110156100eb5780820151818401526020810190506100d0565b505050509050019250505060405180910390f35b61012b6004803603602081101561011557600080fd5b810190808035906020019092919050505061057e565b604051808060200180602001848152602001838103835286818151815260200191508051906020019080838360005b8381101561017557808201518184015260208101905061015a565b50505050905090810190601f1680156101a25780820380516001836020036101000a031916815260200191505b50838103825285818151815260200191508051906020019080838360005b838110156101db5780820151818401526020810190506101c0565b50505050905090810190601f1680156102085780820380516001836020036101000a031916815260200191505b509550505050505060405180910390f35b6103736004803603606081101561022f57600080fd5b81019080803590602001909291908035906020019064010000000081111561025657600080fd5b82018360208201111561026857600080fd5b8035906020019184600183028401116401000000008311171561028a57600080fd5b91908080601f016020809104026020016040519081016040528093929190818152602001838380828437600081840152601f19601f820116905080830192505050505050509192919290803590602001906401000000008111156102ed57600080fd5b8201836020820111156102ff57600080fd5b8035906020019184600183028401116401000000008311171561032157600080fd5b91908080601f016020809104026020016040519081016040528093929190818152602001838380828437600081840152601f19601f8201169050808301925050505050505091929192905050506106d8565b6040518082815260200191505060405180910390f35b6103b56004803603602081101561039f57600080fd5b810190808035906020019092919050505061077e565b6040518082815260200191505060405180910390f35b6103f7600480360360208110156103e157600080fd5b810190808035906020019092919050505061079f565b6040518080602001828103825283818151815260200191508051906020019080838360005b8381101561043757808201518184015260208101905061041c565b50505050905090810190601f1680156104645780820380516001836020036101000a031916815260200191505b509250505060405180910390f35b61049e6004803603602081101561048857600080fd5b8101908080359060200190929190505050610856565b6040518080602001828103825283818151815260200191508051906020019080838360005b838110156104de5780820151818401526020810190506104c3565b50505050905090810190601f16801561050b5780820380516001836020036101000a031916815260200191505b509250505060405180910390f35b6000600180549050905090565b6060600180548060200260200160405190810160405280929190818152602001828054801561057457602002820191906000526020600020905b815481526020019060010190808311610560575b5050505050905090565b6000602052806000526040600020600091509050806000018054600181600116156101000203166002900480601f01602080910402602001604051908101604052809291908181526020018280546001816001161561010002031660029004801561062a5780601f106105ff5761010080835404028352916020019161062a565b820191906000526020600020905b81548152906001019060200180831161060d57829003601f168201915b505050505090806001018054600181600116156101000203166002900480601f0160208091040260200160405190810160405280929190818152602001828054600181600116156101000203166002900480156106c85780601f1061069d576101008083540402835291602001916106c8565b820191906000526020600020905b8154815290600101906020018083116106ab57829003601f168201915b5050505050908060020154905083565b6000836000808681526020019081526020016000206002018190555082600080868152602001908152602001600020600101908051906020019061071d92919061090d565b5081600080868152602001908152602001600020600001908051906020019061074792919061090d565b5060018490806001815401808255809150509060018203906000526020600020016000909192909190915055508390509392505050565b6001818154811061078b57fe5b906000526020600020016000915090505481565b60606000808381526020019081526020016000206000018054600181600116156101000203166002900480601f01602080910402602001604051908101604052809291908181526020018280546001816001161561010002031660029004801561084a5780601f1061081f5761010080835404028352916020019161084a565b820191906000526020600020905b81548152906001019060200180831161082d57829003601f168201915b50505050509050919050565b60606000808381526020019081526020016000206001018054600181600116156101000203166002900480601f0160208091040260200160405190810160405280929190818152602001828054600181600116156101000203166002900480156109015780601f106108d657610100808354040283529160200191610901565b820191906000526020600020905b8154815290600101906020018083116108e457829003601f168201915b50505050509050919050565b828054600181600116156101000203166002900490600052602060002090601f016020900481019282601f1061094e57805160ff191683800117855561097c565b8280016001018555821561097c579182015b8281111561097b578251825591602001919060010190610960565b5b509050610989919061098d565b5090565b6109af91905b808211156109ab576000816000905550600101610993565b5090565b9056fea265627a7a723158204dadc04b20c17e0973346d00335b449b196ad3f98d1059a0c18abd9c5f984a1364736f6c63430005100032",
  "source": "// SPDX-License-Identifier: MIT\npragma solidity >=0.4.21 <0.7.0;\n\ncontract ProductContract {\n    struct ProductData {\n        string name;\n        string location;\n        uint barcode;\n    }\n    \n    mapping (uint => ProductData) public productStructs; // the storage of the products\n    uint[] public productList; // keeping track of the amount of products\n\n    function getLocation(uint barcode) public view returns(string memory) {\n        return productStructs[barcode].location;\n    }\n    \n    function getName(uint barcode) public view returns(string memory) {\n        return productStructs[barcode].name;\n    }\n\n    function add(uint barcode, string memory location, string memory name) public returns(uint) {\n        productStructs[barcode].barcode = barcode;\n        productStructs[barcode].location = location;\n        productStructs[barcode].name = name;\n        productList.push(barcode);\n        return barcode;\n    }\n    \n    function all() view public returns(uint[] memory) {\n        return productList;\n    }\n    \n    function count() view public returns (uint) {\n        return productList.length;\n    }\n}\n",
  "sourcePath": "/Users/jasper/Code/blockchainavans/contracts/ProductContract.sol",
  "compiler": {
    "name": "solc",
    "version": "0.5.16+commit.9c3226ce.Emscripten.clang"
  },
  "schemaVersion": "3.4.3",
  "updatedAt": "2021-10-24T10:53:10.796Z",
  "networkType": "ethereum",
  "devdoc": {
    "methods": {}
  },
  "userdoc": {
    "methods": {}
  }
}